:1000000012C02CC02BC060C029C028C027C026C089
:1000100025C024C023C032C021C020C01FC01EC0C4
:100020001DC01CC01BC011241FBECFE5D4E0DEBF25
:10003000CDBF10E0A0E6B0E0E4ECF3E002C0059034
:100040000D92A236B107D9F720E0A2E6B0E001C0D8
:100050001D92A237B207E1F711D1B2C1D1CF90BD45
:1000600089B988E98AB986E880BD08955D9BFECF8D
:100070008CB908955F9BFECF8CB108951F920F92AB
:100080000FB60F9211248F938CB1809369008F91DA
:100090000F900FBE0F901F90189587B38E6387BB8C
:1000A00088B3817C88BB85B5886085BD85B5816056
:1000B00085BD8CED83BD89B7806889BF83E080935F
:1000C0006F0010926E0008951F920F920FB60F925C
:1000D00011242F933F938F939F9380916A00909167
:1000E0006B0020916400309165008217930710F037
:1000F000C19A01C0C19880916C0090916D002091CF
:100100006400309165008217930710F0C29A01C015
:10011000C29880917000909171002091640030919C
:1001200065008217930710F0C39A01C0C3988091AD
:10013000640090916500883E934020F01092650025
:100140001092640080916F008130E9F48091620028
:1001500090916300019690936300809362008E3EBD
:10016000924089F480916E00883230F480916E0064
:100170008F5F80936E0003C083E080936F001092C6
:1001800063001092620080916F008230E9F48091E8
:1001900062009091630001969093630080936200E7
:1001A0008E3E924089F480916E00882331F08091D8
:1001B0006E00815080936E0003C083E080936F00D7
:1001C000109263001092620080916400909165002B
:1001D000019690936500809364009F918F913F9169
:1001E0002F910F900FBE0F901F901895FC0181E08A
:1001F00080936F00613059F480819181843591053D
:10020000A8F080916E0090E08C5A9F4F0DC0623034
:1002100069F4808191818535910540F420916E00CB
:1002200084E590E0821B9109918380830895FC010D
:1002300082E080936F00808191818635910530F056
:1002400080916E0090E08C5A9F4F0BC0808191810D
:100250008335910548F420916E0084E590E0821B7F
:10026000910991838083089584E590E09183808350
:1002700010926E0083E080936F0008950EDF87E494
:1002800090E0EDDE88EE93E090936B0080936A003F
:10029000789484E590E090937100809370001092C0
:1002A0006B0010926A00F9DE04E510E082E0C82ECF
:1002B000BB24B39493E0D92E28EEE22E23E0F22E55
:1002C000CCE2D1E080916900833531F178F4843457
:1002D000D1F028F4813441F5B092600025C0883413
:1002E00009F18C3409F5C09266001EC0843671F0A5
:1002F00028F4873571F0813649F016C0833779F0DC
:10030000873769F011C0C09260000EC01092600083
:100310000BC0B092670008C0C092670005C0109281
:10032000670002C0B092660080916700813019F4C6
:10033000C49AC59804C0823029F4C59AC498D09252
:10034000670005C0811103C088B38F7C88BB809192
:100350006000813099F480936F00809170009091DB
:10036000710085359105B0F480916E009801281BCD
:10037000310930937100209370000CC0823029F451
:1003800061E080E790E032DF05C0811103C080E7C3
:1003900090E04DDF80916600813031F4F0926B0087
:1003A000E0926A00D092660080916600823009F087
:1003B00089CFD0936B00C0936A00D092660082CF41
:0403C000F894FFCFDF
:0203C400030034
:00000001FF
